:020000040800F2
:10000000800A0020590100088D0900086F050008CA
:1000100000000000000000000000000000000000E0
:10002000000000000000000000000000ED090008D2
:1000300000000000000000008F090008EF09000820
:100040006B010008000000006B0100086B01000854
:100050006B0100086B0100086B0100086B010008D0
:10006000000000006B0100086B0100086B01000834
:100070006B0100086B0100086B0100080000000024
:100080006B0100086B010008000000006B01000814
:100090006B0100086B0100086B0100086B01000890
:1000A000710500086B0100086B0100086B01000876
:1000B0006B01000800F002F800F03EF80CA030C818
:1000C000083824182D18A246671EAB4654465D46D4
:1000D000AC4201D100F030F87E460F3E0FCCB64660
:1000E0000126334200D0FB1AA246AB4633431847E1
:1000F0006C0B00008C0B0000103A02D378C878C15A
:10010000FAD8520701D330C830C101D504680C6059
:10011000704700000023002400250026103A01D378
:1001200078C1FBD8520700D330C100D50B607047AF
:100130001FB51FBD10B510BD00F00BF91146FFF73C
:10014000F7FF00F035FD00F023F903B4FFF7F2FFED
:1001500003BC00F029F90000074880470748004722
:10016000FEE7FEE7FEE7FEE7FEE7FEE70448054997
:10017000054A064B70470000610A0008B5000008F8
:1001800080040020800A00208006002080060020D5
:1001900001E004C0091F0429FBD28B0701D50280AE
:1001A000801CC90700D00270704700290BD0C3071C
:1001B00002D00270401C491E022904D3830702D5D5
:1001C0000280801C891EE3E70022EEE70022DFE7C1
:1001D0000378C2781946437812061B0219438378C4
:1001E000C0781B04194311430902090A0006084399
:1001F0007047002203098B422CD3030A8B4211D390
:1002000000239C464EE003460B433CD400224308A7
:100210008B4231D303098B421CD3030A8B4201D397
:1002200094463FE0C3098B4201D3CB01C01A52412F
:1002300083098B4201D38B01C01A524143098B427F
:1002400001D34B01C01A524103098B4201D30B0168
:10025000C01A5241C3088B4201D3CB00C01A52418D
:1002600083088B4201D38B00C01A524143088B4252
:1002700001D34B00C01A5241411A00D201465241EB
:10028000104670475DE0CA0F00D04942031000D30A
:100290004042534000229C4603098B422DD3030A5F
:1002A0008B4212D3FC22890112BA030A8B420CD36F
:1002B000890192118B4208D3890192118B4204D398
:1002C00089013AD0921100E08909C3098B4201D318
:1002D000CB01C01A524183098B4201D38B01C01A52
:1002E000524143098B4201D34B01C01A52410309C9
:1002F0008B4201D30B01C01A5241C3088B4201D378
:10030000CB00C01A524183088B4201D38B00C01A24
:100310005241D9D243088B4201D34B00C01A5241FB
:10032000411A00D20146634652415B10104601D388
:100330004042002B00D54942704763465B1000D312
:10034000404201B50020C046C04602BD704770471C
:100350007047754600F024F8AE46050069465346DE
:10036000C008C000854618B020B5FFF7FFFE60BC8E
:1003700000274908B6460026C0C5C0C5C0C5C0C5CF
:10038000C0C5C0C5C0C5C0C5403D49008D46704709
:1003900010B50446C046C0462046FFF7D6FE10BD45
:1003A000004870471C04002001491820ABBEFEE73E
:1003B000260002007047000010B50446342188432F
:1003C00001D1002C03D1034903A000F0BDFB0A4872
:1003D000C46010BD8A0400002E2E5C436F72655C01
:1003E0005372635C73746D3332663078785F666C19
:1003F0006173682E6300000000200240F8B50546D6
:100400001F20C00610492818884204D9FF2107314F
:100410000EA000F099FB0B273F04384600F096F839
:1004200004280FD1114C20690226304320616561F8
:100430002069402108432061384600F087F821698F
:10044000B1432161F8BD0000FFFF00002E2E5C4388
:100450006F72655C5372635C73746D3332663078AF
:10046000785F666C6173682E6300000000200240B4
:1004700008490420CA68D20701D001207047CA6821
:10048000D20601D502207047C9684907FBD5032071
:100490007047000000200240024801698022114399
:1004A0000161704700200240F8B505460020009029
:1004B0000E461F20C00613492818884204D9FF2180
:1004C0004F3111A000F040FB0B273F04384600F0ED
:1004D0003DF8042815D1144C2069012108432061FE
:1004E0002E80384600F032F8042806D1AD1C300CBE
:1004F00000952880384600F029F82169490849000C
:100500002161F8BDFFFF00002E2E5C436F72655C19
:100510005372635C73746D3332663078785F666CE7
:100520006173682E630000000020024004480169E6
:10053000090603D503494160034941607047000043
:100540000020024023016745AB89EFCD00B503468B
:10055000FFF78EFF02E0FFF78BFF5B1E012803D041
:10056000002B00D1052000BD002BF4D1FAE7FEE7F7
:10057000F0B5274882690427130708242549002B72
:1005800014DAC3692343C3618369DB03036805D5B8
:1005900002252B43036003230B7002E03B430360FF
:1005A0000F70036820252B4303600AE0930708D4EB
:1005B000530706D5456A184E4B88F5545B1C4B8093
:1005C0000F7092060123002A20DAC5692022154304
:1005D000C5610E780025032E0ED0042E0BD14D8060
:1005E0000B700168914301604168920211434160C0
:1005F000016821430160F0BDC269FF2331331A4312
:10060000C2610268224302600D70F0BD8B80F0BDB4
:1006100000580040000000201400002010B5094CD4
:100620002068094908406104884209D100F0B0F906
:10063000606806498860C860216881F3088880473F
:1006400010BD0000001000080000FE2F0000002078
:1006500008B504494A6902434A6149690140009169
:1006600008BD00000010024008B50449CA690243F1
:10067000CA61C9690140009108BD00000010024034
:10068000F0B500244DE00123A3401A4048D04B6848
:10069000012B01D0022B10D18E688568134653437D
:1006A0005F00DF19BD4373431D438560CD680B6850
:1006B00046689E436B431E4346600F69C6681346F7
:1006C00053435D005D19AE435F433E43C6604E68D1
:1006D000022E1FD1FF2A0ED817464A69066A944691
:1006E0001A467A437A431701BF1ABE4367467A43D4
:1006F000164306620EE0160A324672434F69724391
:100700007243BC461601B71A466ABE4367467A432F
:10071000164346624A6806685343AE431E4306606A
:10072000641C0A681346E340ADD10020F0BD000010
:1007300002460B4B00200B499A4202D1012252057E
:1007400004E0094B9A4208D1012292050B69134338
:100750000B610B6993430B617047012070470000E8
:1007600000540040001002400058004030B50268BC
:100770005208520002608C68CA6803681F252D0267
:100780001202AB432243134303604A6802610268CA
:1007900001231A43026083680122D20393438360DA
:1007A0008C690B6985682343ED0AED021D43856062
:1007B0000B69002B02D08368134383600C680368C5
:1007C00003252D05AB43234303604B6941689143E7
:1007D00019434160002030BD10B57D21C900FFF7ED
:1007E00008FD0449401E4861002088610520086119
:1007F00010BD000000E000E0054801210269090782
:100800000A43026102698A430261002070470000C6
:100810000010024018B52048016801221143016010
:1008200001688907C90FFBD00168F8229143802332
:10083000194301600021C9431849009141600C240B
:1008400041682142FCD10168154C214000910160B2
:1008500001688901C90FFBD101680124A404A143E7
:10086000016000214160446B94431C434463426B2C
:10087000520852004263426B04239A434263C162AE
:100880000163BF221204009282608160416A9A056E
:1008900011434162002018BD001002400CF8FFF027
:1008A000FFFFF6FE014908607047000010000020BD
:1008B00008B506490A690092421C00D0401C0A692A
:1008C000D20300D5401E0028F9D108BD00E000E0A9
:1008D000F0B58DB01C2106A8FFF778FC18216846FA
:1008E000FFF774FC01208004FFF7B2FE0124012011
:1008F000002580020226032703946A460495059486
:10090000C1C269461D48FFF7BBFEE00203946A4678
:1009100004950594C1C269461848FFF7B1FEA005C9
:10092000FFF7A2FE0021182000F0ECF8182000F0DC
:10093000DDF8134CE068E1138843E06020680901AA
:100940008843206020688910884320600D48079004
:10095000A82006950A90089509950B9506A90C956F
:100960002046FFF703FF6068310608436060E068D7
:1009700005490840E0600DB0F0BD000000040048EB
:10098000005800400E09002001F8FFFFFEE7704705
:1009900010B5134C2046FFF7CBFE606801214906D5
:1009A000884360602068400840002060206808217B
:1009B000884320600B48002101610B4802689207C0
:1009C000920F02608160C16001614161816982159D
:1009D00011438161FFF71EFFFFF70EFF10BD0000FE
:1009E0000058004000E000E0000001407047704700
:1009F00010B5184801684908490001600168C90735
:100A0000C90FFBD11448016801221143016001683C
:100A10008907C90FFBD00168F82291438022114356
:100A200001604168F022914341604168072212024F
:100A30009143416041688908890041600C22416806
:100A40001142FCD1054C2046FFF7C6FE2046FFF7B9
:100A500029FF10BD002002400010024000127A0061
:100A600070470000F8B5204C0826601CFFF7B0FB6B
:100A700000BA050A20792D020543F0012F1860798C
:100A8000A179000240180004000C21D0FFF74EFDB0
:100A90003420FFF791FC2846FFF7B0FC0428FAD178
:100AA00014E0A0190090FFF793FB01020098090AD7
:100AB000C0780006014300912846FFF7F5FC0428A2
:100AC00001D00099F8E7361DB6B22D1DBD42E8D31E
:100AD000002081220146D2002154401C9042FBD3C9
:100AE000FFF7DAFCF8BD000014000020002805DB49
:100AF000C106C90E01208840014908607047000006
:100B000000E100E08307FF22DB0E9A408907090E0F
:100B10009940002808DB830809489B001B181868C7
:100B200090430843186070470007000F0838830897
:100B300004489B001B18D86990430843D86170474C
:100B400000E400E000ED00E070470000144C0125D7
:100B500020780128FCD1134900060860BFF34F8FAD
:100B6000BFF36F8F002020700F4800786070062858
:100B700002D0772805D102E0FFF774FF01E0FFF70C
:100B80004DFD1820FFF7B2FF0848026808210A430C
:100B9000026002682A43026002680A430260D7E7E3
:100BA0000000002080E100E0140000200058004018
:100BB000274886B0826901210A4382618069084022
:100BC00000900807FFF750FD0321081FFFF79AFF69
:100BD000FFF70EFF0124A4042046FFF739FD601043
:100BE000FFF736FD18216846FFF7F0FA2046FFF7B9
:100BF0002FFD2012092600250124F60600906946E3
:100C0000019504943046FFF73BFDE00200906946F1
:100C1000019504943046FFF733FDFF202D30FFF798
:100C200047FE0C48016949050ED4006900050BD444
:100C3000FFF74EFE08480168214301600168082261
:100C400011430160FFF782FFFFF7E8FCFEE70000B9
:100C50000010024000040048005800407C0C0008CE
:100C60000000002014000000F8000008900C0008AC
:100C7000140000206C0A00001401000800000000AD
:100C800000000000000000000000000000127A00D8
:100C9000FFFFFFFFFFFFFFFFFFFFFFFFFFFFFFFF64
:100CA000FFFFFFFFFFFFFFFFFFFFFFFFFFFFFFFF54
:100CB000FFFFFFFFFFFFFFFFFFFFFFFFFFFFFFFF44
:100CC000FFFFFFFFFFFFFFFFFFFFFFFFFFFFFFFF34
:100FF000FFFFFFFFFFFFFFFFFFFFFFFFFFFFFF01FF
:10100000080B002099110008ED4000080D3600087B
:1010100000000000000000000000000000000000D0
:10102000000000000000000000000000F140000887
:101030000000000000000000EF400008F34000083E
:10104000AB11000800000000AB110008AB11000854
:10105000AB1100085518000865180008751800083D
:1010600000000000AB110008F9170008AB110008E0
:10107000AB110008AB110008AB1100080000000024
:10108000AB110008AB11000800000000AB11000814
:10109000AB110008AB110008AB110008AB11000840
:1010A00011360008AB110008AB110008AB110008A5
:1010B000AB11000800F002F800F042F80CA030C8B4
:1010C000083824182D18A246671EAB4654465D46C4
:1010D000AC4201D100F034F87E460F3E0FCCB6464C
:1010E0000126334200D0FB1AA246AB4633431847D1
:1010F000483E0000683E0000103A02D378C878C12C
:10110000FAD8520701D330C830C101D504680C6049
:10111000704700000023002400250026103A01D368
:1011200078C1FBD8520700D330C100D50B6070479F
:101130001FB50098019900F064FA1FBD10B510BDED
:1011400000F0BEFA1146FFF7F3FF03F089FC00F050
:10115000F0FA03B4FFF7F2FF03BC00F027FB000036
:1011600070B505460C46164602E00FCC0FC5103E82
:10117000102EFAD2082E02D303CC03C5083E042E4B
:1011800007D301CC01C5361F03E021782970641C08
:101190006D1C761EF9D270BD07488047074800478E
:1011A000FEE7FEE7FEE7FEE7FEE7FEE70448054947
:1011B000054A064B7047000055410008B51000086D
:1011C00008050020080B0020080700200807002061
:1011D00070B503F0BFF90123044600221B07C01AB3
:1011E000914101D3002070BD204600F0BBF90500FD
:1011F00002D0214600F0F1F8284670BD10B5202A33
:1012000004DB0846203AD040002110BD0B462024C4
:10121000D340D040A21A91400843194610BDFEB5F4
:10122000054610460C46184373D0AE468C46002047
:10123000AD1A01469C4167D36646002701243D460E
:10124000B61A9D4102D313463A4621246546764696
:101250002F04360C3E432D0CB61A9D4104D3150CB9
:101260001B042B4312041034654676462F06360ABB
:101270003E432D0AB61A9D4104D3150E1B022B4383
:1012800012020834654676462F0736093E432D097B
:10129000B61A9D4104D3150F1B012B431201241DC7
:1012A00065467646AF07B6083E43AD08B61A9D417F
:1012B00004D3950F9B002B439200A41C65467646F1
:1012C000EF0776083E436D08B61A9D411AD392186F
:1012D0005B41641C16E00018764665464941B71A22
:1012E0009D410191009009D36046B11A98418E4604
:1012F0008446009801990025401C6941DD07520889
:101300002A435B08641EE6D57246634603B0F0BD0F
:10131000FFE700200146C046C0462A462346F5E7BF
:10132000F8B5042A2CD3830712D00B78491C03701C
:10133000401C521E83070BD00B78491C0370401CC5
:10134000521E830704D00B78491C0370401C521EA8
:101350008B079B0F05D0C91ADF002023DE1B08C9AD
:101360000AE0FFF7FDFEF8BD1D4608C9FD401C461A
:10137000B4402C4310C0121F042AF5D2F308C91A36
:10138000521EF0D40B78491C0370401C521EEAD444
:101390000B78491C0370401C012AE4D409780170C1
:1013A000F8BD01E004C0091F0429FBD28B0701D559
:1013B0000280801CC90700D00270704700290BD042
:1013C000C30702D00270401C491E022904D38307C0
:1013D00002D50280801C891EE3E70022EEE700228E
:1013E000DFE70378C2781946437812061B021943D7
:1013F0008378C0781B04194311430902090A0006C7
:1014000008437047002203098B422CD3030A8B4206
:1014100011D300239C464EE003460B433CD40022EC
:1014200043088B4231D303098B421CD3030A8B42FE
:1014300001D394463FE0C3098B4201D3CB01C01ACC
:10144000524183098B4201D38B01C01A5241430997
:101450008B4201D34B01C01A524103098B4201D385
:101460000B01C01A5241C3088B4201D3CB00C01AF2
:10147000524183088B4201D38B00C01A524143086A
:101480008B4201D34B00C01A5241411A00D201468F
:101490005241104670475DE0CA0F00D04942031028
:1014A00000D34042534000229C4603098B422DD377
:1014B000030A8B4212D3FC22890112BA030A8B421F
:1014C0000CD3890192118B4208D3890192118B426E
:1014D00004D389013AD0921100E08909C3098B42F3
:1014E00001D3CB01C01A524183098B4201D38B0136
:1014F000C01A524143098B4201D34B01C01A5241D9
:1015000003098B4201D30B01C01A5241C3088B421D
:1015100001D3CB00C01A524183088B4201D38B0008
:10152000C01A5241D9D243088B4201D34B00C01A92
:101530005241411A00D20146634652415B101046A7
:1015400001D34042002B00D54942704763465B10EF
:1015500000D3404201B50020C046C04602BD7047DE
:101560007047704770B5064600F02EF805683046A3
:101570000B30C408E400B44201D8002070BD686894
:101580002A46002818D00168A14211D30B462146F3
:1015900008318B4208D3436801194B6003681B1B59
:1015A0000B605160046001E041685160001D70BD36
:1015B000024640680028E6D12146284600F00CF893
:1015C0000028DCD170BD000000487047B004002046
:1015D000704770477047704738B504460A46002088
:1015E0006946C046C046002805D0024620460099FC
:1015F00000F085F8012038BD10B5012000F0A1F8F9
:1016000010BDF8B5C046C046054600200C46102067
:10161000C0460646A819A0420DD9324669460020A8
:10162000C046C046070001D100F08BF80098A042E8
:1016300000D00546C419FFF7C7FFF61D0746056031
:10164000F008C0004619284600F008F8B44204D05B
:1016500031463868A21B00F052F8F8BD0021016045
:101660004160806070471020704770B50446051FC8
:10167000FFF7AAFF0068002C1AD0446801E020465A
:101680006468002C01D0AC42F9D301680A18AA4260
:1016900004D12A6805468918016000E04560286881
:1016A0004119A14205D1616869602168401828602C
:1016B00070BD6C6070BD000000487047A804002039
:1016C0007546FFF7F9FFAE46050069465346C00868
:1016D000C000854618B020B5FFF768FD60BC002744
:1016E0004908B6460026C0C5C0C5C0C5C0C5C0C5EE
:1016F000C0C5C0C5C0C5403D49008D46704710B546
:101700000346406801E003464068002801D0884253
:10171000F9D31868C3188B4206D0CB1CD808C00078
:10172000001D411A521A0146081D0A60FFF79DFF6D
:1017300010BD10B50446C046C0462046FFF709FD5F
:1017400010BD10B500F00AF800F002F810BD7047A7
:1017500010B5002801D000F029F810BD10B50128FF
:1017600005D0002103A000F027F8012010BD09A139
:10177000F8E7000053494752544D454D3A204F7504
:1017800074206F662068656170206D656D6F727979
:10179000000000003A2048656170206D656D6F7231
:1017A0007920636F72727570746564000149182046
:1017B000ABBEFEE72600020070B505460C460A20C7
:1017C00000E06D1C00F012F8002D06D028780028EB
:1017D000F7D102E0641C00F009F8002C02D0207858
:1017E0000028F7D10A2000F001F870BD08B569465D
:1017F00008700320ABBE08BD10B5024800F009F91F
:1018000010BD00000802002010B50446006805491C
:1018100040181421FFF7F6FD800020640248E063C1
:1018200010BD0000F8FFFDBF0000024030B5056CA0
:101830000124AC40C56B6C60046863604368102B86
:10184000036803D099600068C26030BD9A60006888
:10185000C16030BD10B5012000F0FAFD022000F09B
:10186000F7FD10BD10B5042000F0F2FD082000F0D7
:10187000EFFD10BD10B5102000F0EAFD202000F0B3
:10188000E7FD402000F0E4FD802000F0E1FDFF20B6
:10189000013000F0DDFD0120400200F0D9FD012003
:1018A000800200F0D5FD0120C00200F0D1FD012032
:1018B000000300F0CDFD0120400300F0C9FD012030
:1018C000800300F0C5FD0120C00300F0C1FD10BD84
:1018D00072B6FEE706490020C86106480169042285
:1018E0001143016101694022114301617047000009
:1018F0008804002000200240064A0021D1610649E8
:101900000A6902231A430A614861086940221043A8
:1019100008617047880400200020024010B5054B84
:101920000022DA61044A1369012423431361018010
:1019300010BD0000880400200020024010B50B4AB2
:101940000020D168CB060A4904D5C8690223184390
:10195000C8611020D3685B0705D5CB6901242343F8
:10196000CB6104210843D06010BD0000002002407C
:101970008804002070B5054600F04EFE0646104C67
:101980000AE0681C08D0002D04D000F045FE801B42
:10199000A84201D9032070BDE068C007F1D1E0681A
:1019A000800601D52020E060E068C00602D4E0682F
:1019B000400703D5FFF7C2FF012070BD002070BDB6
:1019C0000020024070B50024014620314A78022AE6
:1019D00003D004218163012416E0026813680E25F8
:1019E000AB431360026813685B085B00136001225D
:1019F000056C1346AB40C56B6B604A7000220A70E1
:101A0000416B002900D08847204670BD20304078C7
:101A10007047F0B4C16B0D6801680C680422066C55
:101A20001346B3402B420DD063070BD50B689B06C2
:101A300002D40B6893430B60016C8A40C16B4A600F
:101A4000C16A19E00227B74002462F400123203225
:101A5000002F15D0A70713D50C68A40604D40C6872
:101A60000A25AC430C605370036C02219940C36B90
:101A7000596000211170816A002916D0F0BC084716
:101A80000827B7402F4210D024070ED50C680E252A
:101A9000AC430C60046C1946A140C46B6160836365
:101AA000537000211170016BE6E7F0BC7047000035
:101AB00070B5040021D00221204620300546417037
:101AC000226811680E48A3680140606826691843BF
:101AD000E3683343184363691843A3691843E36910
:101AE0001843084310602046FFF78EFE0021A163D3
:101AF000012068702970084670BD012070BD00008B
:101B00000FC0FFFFF8B504468C4620300178002551
:101B1000012909D00126067041780027012905D046
:101B2000077002252846F8BD0220F8BD0221417049
:101B3000A7632068016849084900016061462046A2
:101B4000FFF774FEE06A00282068016802D00E22C8
:101B5000114306E00A221143016020680168042253
:101B6000914301602068016831430160DAE70000B9
:101B700070B5044600F050FD0546601C02D00448D4
:101B80000078241800F048FD401BA042FAD370BD35
:101B900024010020F8B5054623480F46017E0126A2
:101BA00001290BD0012101762868204C012807D09B
:101BB0002046FFF7DFFE002813D030E00220F8BDFA
:101BC0002046FFF7D7FE002829D1FFF783FE2046E5
:101BD000FFF7D0FE064616480169042291430161D1
:101BE0001DE00020C04338606C6812E02046FFF71B
:101BF00083FE0E48FFF7BEFE06460D48026902212D
:101C00008A430261002E01D03C6008E0012080027E
:101C10002418A868810268680818A042E6D802481B
:101C2000002101763046F8BD8804002050C3000032
:101C30000020024003480169802211430161002015
:101C40007047000000200240F0B51FB407461A4854
:101C50000024017E15461E46012907D00121017688
:101C60001648FFF787FE002803D020E0022005B0C9
:101C7000F0BD012F02D0022F00D0042722012846F8
:101C80003146FFF7BBFA81B2019862001018FFF7E6
:101C900045FE0A48FFF76EFE09490A6952085200DC
:101CA0000A61002803D1641CE4B2BC42E6D30249B5
:101CB00000220A76DBE700008804002050C3000001
:101CC00000200240064900200A69120607D5054A8D
:101CD0004A60054A4A600969090600D50120704733
:101CE0000020024023016745AB89EFCDFEB50746D2
:101CF00000200646009002F075FCF7488178F74C0A
:101D0000F81F2546F93820350290002979D002F0D5
:101D1000FBFF002601200003874202D0800087429B
:101D200002D13946EE4802E009203946C00600F0EB
:101D30006DFC002802D00020009014E00098401CA8
:101D400080B200900A280ED3FF21013102988F4201
:101D50002AD010DC012F4BD0042F41D0102F38D0C7
:101D6000402F4BD12EE0761CB6B2962ED2D345E052
:101D700002F0ECFCFEBD03210902411A0DD0032044
:101D80008002091A17D08000814237D1A068401C18
:101D9000A060A868401CA86030E02068401C20605B
:101DA0002868401C286029E06068401C6060686802
:101DB000401C686022E0E068401CE060E868401C6D
:101DC000E8601BE02069401C20612869401C2861F4
:101DD00014E06069401C60616869401C68610DE046
:101DE000A069401CA061A869401CA86106E008E049
:101DF000E069401CE061E869401CE86102F0A4FF72
:101E0000B6E702F041FFFF2201320298974229D043
:101E100012DC102F2CD008DC012F2DD0022F2BD05C
:101E2000042F27D0082F2AD124E0202F20D0402FA4
:101E30001CD0802F23D119E00F231B02C21A984215
:101E400012D003DCFF38012819D117E0012000036C
:101E5000121A09D04000121A02D0400082420ED15C
:101E600002260CE0012632E0032608E0042606E004
:101E7000052604E0062602E0072600E001260120F0
:101E80008002874223D0F81FF93820D00120800338
:101E900087421CD08010874216D0402F11D0102FBF
:101EA0000FD0042F0DD0012F0BD000200190012066
:101EB0004003874202D08000874272D13946884869
:101EC00061E10020019010E0002001900AE0002074
:101ED000019003E001200003874203D0012080032A
:101EE000874202D139467E4802E009203946C006C1
:101EF00000F08CFB014678480B30805D002802D052
:101F0000002902D008E0002906D00099491C89B2B6
:101F100000910A2909D201E0002000900198401C9C
:101F200080B201909628D5D349E1FF22013202996F
:101F300097423CD008DC012F6FD0042F6ED0102FB9
:101F40006DD0402F4CD188E0032212028A1A0FD0A4
:101F500003218902521A63D089008A4240D10028A5
:101F600060495F4854D000F051FB002840D045E064
:101F70000121C90200285C4814D000F047FB00286A
:101F800005D12068401E20602868401E04E02068BB
:101F9000401C20602868401C28604F4801790122BD
:101FA0001CE0EDE000F032FB0028F0D0E9E700286B
:101FB0004E494D4817D000F029FB002805D1606834
:101FC000401E60606868401E04E06068401C6060FD
:101FD0006868401C68604048017902221143017121
:101FE0003D480B3057E100F011FB0028EDD0E6E74B
:101FF000A068401EA060A868401E04E0A068401CC5
:10200000A060A868401CA860334801790422E5E775
:1020100000F0FCFA0028F1D0EAE78CE06AE03BE04F
:10202000002833492E4813D000F0F0FA002805D1DB
:10203000E068401EE060E868401E04E0E068401C84
:10204000E060E868401CE860234801790822C5E7A1
:1020500000F0DCFA0028F1D0EAE7002815D0802152
:10206000214800F0D3FA002805D12069401E2061E4
:102070002869401E04E02069401C20612869401C3A
:102080002861154801791022A8E78021164800F040
:10209000BDFA0028EFD0E8E7002815D0202112482B
:1020A00000F0B4FA002805D16069401E60616869DB
:1020B000401E04E06069401C60616869401C686102
:1020C00005480179202289E72021074800F09EFA7F
:1020D0000028EFD0E8E70000C00000203401002015
:1020E00000040048008000000000004800020000DA
:1020F00000200000002816D009200821C00600F0AA
:1021000085FA002805D1A069401EA061A869401E7B
:1021100004E0A069401CA061A869401CA861C548F2
:10212000017940225AE709200821C00600F06EFA22
:102130000028EED0E7E7002816D009200221C006CB
:1021400000F064FA002805D1E069401EE061E8690A
:10215000401E04E0E069401CE061E869401CE86161
:10216000B4480179802239E709200221C00600F035
:102170004DFA0028EED0E7E7815502F0A5FDF7E51E
:1021800009203946C00600F041FAAA491331895D99
:10219000002902D0002802D008E0002806D00098CC
:1021A000401C80B200900A2811D201E0002000906B
:1021B0000198401C80B20190962800D277E602F088
:1021C00083FD02F0C3FA9B4901208871FEBD012006
:1021D0004002391A874240D008DC022F75D0082F00
:1021E00074D0202F73D0802F53D197E0032040026A
:1021F000081A12D00321C902401A6FD08900884200
:1022000047D18C488C491330805D00288B4860D0C2
:1022100000F0FCF9002848D04DE08648884913308A
:10222000805D0028874813D000F0F0F9002805D120
:102230002068401C20602868401C04E02068401E84
:1022400020602868401E28607A48017901221EE03B
:1022500000F0DCF90028F1D0EAE776487A4913303B
:10226000805D002877481BD000F0D0F9002805D108
:102270006068401C60606868401C04E06068401E44
:1022800060606868401E68606A48017902221143F4
:10229000017168481330815D002972D000216BE71D
:1022A00000F0B4F90028E9D0E2E7A068401CA06083
:1022B000A868401C04E0A068401EA060A868401EFA
:1022C000A8605C4801790422E1E78EE06BE047E01A
:1022D00004E000F09BF90028EDD0E6E755485B49A3
:1022E0001330805D0028554813D000F08FF9002886
:1022F00005D1E068401CE060E868401C04E0E0684C
:10230000401EE060E868401EE8604A480179082203
:10231000BDE700F07BF90028F1D0EAE7454813302B
:10232000805D002815D04021464800F06FF9002854
:1023300005D12069401C20612869401C04E0206907
:10234000401E20612869401E28613A480179102208
:102350009DE740213B4800F059F90028EFD0E8E71D
:1023600034481330805D002816D01021354800F025
:102370004DF9002806D16069401C60616869401C05
:1023800005E054E06069401E60616869401E686154
:102390002848017920227AE710212A4800F036F9EE
:1023A0000028EFD0E7E723481330805D002815D0E0
:1023B0000421244800F02AF9002805D1A069401C16
:1023C000A061A869401C04E0A069401EA061A86942
:1023D000401EA86117480179402258E70421194896
:1023E00000F014F90028EFD0E8E712481330805DC0
:1023F000002815D00121134800F008F9002805D164
:10240000E069401CE061E869401C04E0E069401EAE
:10241000E061E869401EE86106480179802236E7FC
:102420000121084800F0F2F80028EFD0E8E7012188
:10243000A2E60000C00000200040000000040048A8
:10244000000400000000004800010000001000002F
:1024500010B504494A69024202D04861FFF746FCC0
:1024600010BD000000040140F8B50023032401253D
:10247000BAE02E469E40B44632407CD00E79B60774
:10248000B60F012E01D0022E17D186682746B64618
:102490005E00B74000967646BE43B646CF68009EC3
:1024A000B74076463743876046686746BE430F7934
:1024B000FF06FF0F9F40374347600E79F643B6078C
:1024C0000ED0C6682746B4465E00B646B74066469C
:1024D000BE43B4468F687646B74066463743C7600A
:1024E0000E79B607B60F022E14D1DE08B6003618E4
:1024F0000096366A5F07B446FE0E0F27B646B74011
:102500006646BE43B4460F697646B74066463743D3
:10251000009E376206682746B4465E00B646B7405E
:102520006646BE430F79B446BF07BF0F7646B74035
:102530006646374307604E68B603B60F53D02D4F3B
:10254000BE692E43BE61BE699F08F607F60F2A4E8C
:10255000BF00BE190096B6680F27B4469E07360F17
:10256000B646B7406646BE430927FF06B446B842A2
:1025700002D1002710E036E0204FB84201D10127F8
:102580000AE01F4FB84201D1022705E01D4FB842B3
:1025900001D1032700E005277646B740664637435A
:1025A000009EB760184E36684F689643FF0300D50B
:1025B0001643154F3E607E684F689643BF0300D5B3
:1025C0001643114F7E60BE684F689643FF0200D5E8
:1025D00016430D4FBE60FE684F689643BF0200D59C
:1025E0001643094AD6605B1C0A681646DE4000D0D6
:1025F0003FE7F8BD00100240000001400004004821
:1026000000080048000C0048000401400069084030
:1026100000D001207047000001488068704700002A
:102620002401002070B5024640325378202B1CD183
:102630001378012B19D001231370242454700468DB
:1026400025689D432560046825681E03B543256001
:10265000046825680D43256000680168194301601E
:10266000202050700020107070BD022070BD70B529
:10267000024640325378202B1BD11378012B18D0FF
:10268000012414702423537003681D68A5431D6042
:1026900005682B680F263602B343090219432960E7
:1026A00000680168214301602020507000201070F4
:1026B00070BD022070BD7047F8B50E461249044641
:1026C00000680968884216D1104D01276F702021DB
:1026D00041200155304602F053F8002E0CD06A8894
:1026E0000B49204600F08CF92F7021680820C86142
:1026F000054800F047F8F8BD054932223239204636
:1027000000F052F9F1E700007401002014010020EC
:102710007E02002070B503689A691968D243D40517
:1027200008D4CC43240605D4446C01252C434464CE
:102730002C02DC61530509D4CB431B0606D4436C41
:10274000082423434364E3010468E361920509D448
:10275000C943090606D4416C0222114341641102A7
:102760000268D161416C0B22114201D001F016F8D0
:1027700070BD026891691268436B002B00D0184746
:102780007047000010B5014640314A78202A01D038
:10279000022010BD28224A70034941630121C90368
:1027A00000F07EFF002010BDD93D000810B5094C97
:1027B0000068216888420CD10749002048704860B1
:1027C0002046FFF7DFFF206841680122D203114352
:1027D000416010BD740100201401002070B5040098
:1027E00006D02546403568780026002802D005E04E
:1027F000012070BD2E70204600F06EF82420687015
:10280000206801684908490001600F2160680906D5
:1028100088432168086121688A680120C0038243D7
:102820008A60E1680129A16808D02122920211433F
:1028300022689160E168022902D005E00143F7E7D0
:1028400001212268C902516021684A680F4B1A436E
:102850004A602168CA688243CA6061692069084386
:10286000A169090208432168C860216AE069084338
:1028700021680860206801680122114301606664D4
:10288000202068702663AE70002070BD00800002BA
:1028900010B50C4A01681268914211D10A4C217896
:1028A000012906D0008D3221081A81B2074801F0B3
:1028B00069FF00202070607060600248FFF762FFCF
:1028C00010BD000074010020140100204C02002003
:1028D000704770477047704710B586B004461421A2
:1028E0006846FEF77CFD17492068884227D1164CC0
:1028F0006169012080040143616161690140032035
:102900000591800200901220019000200290032087
:1029100003900120049069460C48FFF7A5FDE1698A
:10292000012080050143E161E16900220140059138
:102930001146182000F0FAF8182000F0EBF806B065
:1029400010BD000000580040001002400004004884
:1029500010B508490068096888420AD13221064842
:1029600001F010FF05490020487048600148FFF75A
:1029700009FF10BD740100204C020020140100204A
:1029800010B5074900680968884207D10549002049
:102990000870487048600248FFF7F4FE10BD000060
:1029A0007401002014010020F8B5034640335C7820
:1029B000202C1ED11C78012C1BD001241C70222439
:1029C0005C7020249C700024446405686E680127B4
:1029D000FF03BE436E6041624285418D0185064919
:1029E000C162064941631C70B91C00F059FE002009
:1029F000F8BD0220F8BD00000000FFFFD93D00082F
:102A0000F8B5034640335C78202C1ED11C78012C8D
:102A10001BD001241C7021245C7020249C70002495
:102A2000446405686E680127FF03BE436E6041621F
:102A30004285418D01850649C162064941631C708A
:102A4000791C00F02DFE0020F8BD0220F8BD00002A
:102A50000000FFFFD93D000802488168027889180C
:102A6000816070472401002010B5064801681022DB
:102A700011430160032000F007F800F027F8002060
:102A800010BD00000020024070B504460D4D7D20B1
:102A90002978C000FEF7B6FC01460B480068FEF737
:102AA000B1FC00F0CFFA002809D1042C07D2002293
:102AB0002146401E00F03AF800206C6070BD0120F5
:102AC00070BD0000240100203001002008B5084836
:102AD0008169012211438161816911400091C269BC
:102AE00001040A43C261C0690840009008BD0000AB
:102AF00000100240002809DBC106C90E01208840F1
:102B000003490860BFF34F8FBFF36F8F704700001A
:102B100080E100E0002805DBC106C90E01208840E5
:102B2000014908607047000000E100E010B501F0C5
:102B300037FD10BDF8B50F46060059D03A4D28684C
:102B4000C007C00FB84209D2286840084000384387
:102B500028602868C007C00FB84249D13068334C9C
:102B600081070CD5400704D5606807210902084396
:102B700060606068F0218843B16808436060307825
:102B8000C00726D0706801280ED0216802280ED018
:102B9000890700292CDA616889088900014361608E
:102BA000FFF73AFD00900DE021688903F1E7890104
:102BB000EFE7FFF731FD0099411A1D48814201D925
:102BC0000320F8BD60680C210840716889008842C4
:102BD000EFD12868C007C00FB8420BD92868400859
:102BE0004000384328602868C007C00FB84201D0B1
:102BF0000120F8BD3078400706D56068072109023A
:102C00008843F1680843606000F018F86168094A79
:102C10000906090F515CC840074908600320FFF707
:102C200033FF0020F8BD00000020024000100240E9
:102C300088130000284F00083001002010B514A3AD
:102C40000FCB88B06C460FC415A30FCB0FC4184A26
:102C500051680C200B4603401648042B16D0082B55
:102C600014D18B021B0F6C46E45CD26A04AB1207D2
:102C7000120F9A5CC90305D500231946FEF7CFFA57
:102C8000214601E020460C4901F064FC08B010BD6B
:102C900002030405060708090A0B0C0D0E0F10109D
:102CA0000102030405060708090A0B0C0D0E0F109C
:102CB0000010024000127A0000093D00FEB5040039
:102CC00070D02078DC4DC0074AD068680007800FBC
:102CD000012807D068680007800F022809D16868BA
:102CE000C00306D5286880033AD560680028E7D07D
:102CF00036E06168012914D001208004002901D048
:102D0000052914D02A68012109048A432A60296808
:102D1000814329606068002816D0FFF77DFC0646D5
:102D20000EE028680121090408432860F2E72968B9
:102D300001432960F5E7FFF76FFC801B64286ED81C
:102D400028688003F7D50BE0FFF766FC064604E031
:102D5000FFF762FC801B6428F1D828688003F7D451
:102D600020780126800700283CDA68680007800F79
:102D700007D068680007800F022809D16868C0037F
:102D800006D42868800716D5E06801280AD112E029
:102D9000E0680028286816D030432860FFF73CFC24
:102DA000074605E043E1FFF737FCC01B0228C6D801
:102DB00028688007F7D52868F82188432169C90069
:102DC000084328600EE0400840002860FFF724FC1C
:102DD000074604E0FFF720FCC01B0228AFD8286894
:102DE0008007F7D42078000722D5E0690028686AB8
:102DF0000ED030436862FFF70FFC074604E0FFF790
:102E00000BFCC01B02289AD8686A8007F7D50FE030
:102E1000400840006862FFF7FFFB074605E09DE0C1
:102E2000FFF7FAFBC01B022889D8686A8007F7D42D
:102E3000207804274007002860DA00200190E86924
:102E4000C00008D4E969B8060143E961E9690140B5
:102E500001200091019079480168C90511D40168E9
:102E6000821511430160FFF7D7FB009005E0FFF7E3
:102E7000D3FB0099401A642870D870480068C005D8
:102E8000F5D5A06801280AD0002801D0052810D067
:102E9000286A400840002862286AB84301E0286A8E
:102EA00030432862A068002812D0FFF7B5FB0090DD
:102EB0000AE0286A38432862F1E7FFF7ADFB009982
:102EC000411A5F48814249D8286A8007F5D50DE04C
:102ED000FFF7A2FB009006E0FFF79EFB0099411A66
:102EE000574881423AD8286A8007F5D401980028CB
:102EF00004D0E969012000078143E9612078C00618
:102F000035D5606901280CD0401D686B23D038434B
:102F10006863686B400840006863FFF77DFB064606
:102F200022E0686B38436863686B30436863FFF77F
:102F300073FB064604E0FFF76FFB801B02285BD89B
:102F4000686B8007F7D5686BF8218843A169C900D1
:102F5000084368630BE0B8436863F4E74CE0FFF7AD
:102F60005BFB801B022847D8686B8007F7D4206A78
:102F700000285ED069680907890F022942D001261E
:102F800036060228286805D0B0432860FFF744FBC6
:102F9000044633E0B0432860FFF73EFB074604E0F9
:102FA000FFF73AFBC01B022826D828688001F7D417
:102FB000E86AE16A000900010843E862616AA06A00
:102FC000084369683D2212049143084368602868F9
:102FD00030432860FFF720FB044604E0FFF71CFBAA
:102FE000001B022808D828688001F7D521E0FFF7E8
:102FF00013FB001B022801D90320FEBD28688001B5
:10300000F5D416E00128F8D06868E96A01221204B4
:10301000636A02409A420AD10907E26A090F9142A3
:1030200005D10F2189040840A16A884201D00120FE
:10303000FEBD0020FEBD00000010024000700040F8
:1030400088130000094910B5401E884201D90120AB
:1030500010BD074C60610321081F01F0A1FA002098
:10306000A06107202061002010BD0000FFFFFF00CD
:1030700000E000E0F0B502462032137F012B1ED0A5
:10308000012515770223537706687468B3687027A3
:10309000BC430F682743776000680A4CA04205D004
:1030A000094CA04202D0094CA04204D180244968B6
:1030B000A34319438160557700201077F0BD0220AB
:1030C000F0BD0000002C0140000400400040014021
:1030D00070B5040005D025462035687F002802D051
:1030E00006E0012070BD00202877204600F014F88B
:1030F00002206877211D206801F02EF8012040345D
:10310000A071A877E87720706070A070E0702071DF
:1031100060716877002070BD38B5054600681249B7
:10312000884220D11148C26902210A43C261C069A4
:10313000104C084000900E482060102060608021F4
:10314000E1600020A0604900216189006161A06107
:103150008800E0612046FEF7ABFC002801D0FEF7B6
:10316000B7FBEC62656238BD00040040001002400D
:103170001C00024008020020F8B505460446203530
:10318000287F0026012817D00120287702206877A1
:10319000226890687727FF23B8431B02984390600A
:1031A0000868502838D00EDC20284FD006DC0028D4
:1031B0004CD010281ED149E00220F8BD302845D05F
:1031C000402817D13AE060282ED0702819D001226B
:1031D0001203801A0FD090420CD1CB684A688968DC
:1031E000206801F083F8206881680122920311436E
:1031F000816000E0012601206877002028773046B2
:10320000F8BDCB684A688968206801F06FF82168CA
:10321000886838438860EEE7CA684968206801F02A
:1032200075F95021206806E0CA684968206801F0F5
:103230007EF96021206801F064F8DCE7CA6849681B
:10324000206801F063F940212068F4E72268014614
:103250001046F0E77047000010B586B00446142110
:103260006846FEF7BCF80D492068884213D10C4827
:10327000426909130A4342614069084002210590EE
:103280000191012000210090029103910490694670
:103290000448FFF7E9F806B010BD00000004004044
:1032A0000010024000040048F8B5064604462036E7
:1032B000307F00270D4601280ED001203077002AEC
:1032C0000CD0042A1BD0082A2FD00C2A3ED001276C
:1032D000002030773846F8BD0220F8BD206801F0A4
:1032E00019F8206881690822114381612068826988
:1032F00004218A438261206881692A6912E020687A
:1033000001F04CF8206882690121C9020A438261F8
:10331000206881690122920291438161206881695C
:103320002A69120211438161D2E7206801F076F820
:103330002068C16908221143C1612068C269042163
:103340008A43C2612068C1692A6912E0206801F0DD
:10335000A7F82068C1690122D2021143C161206827
:10336000C269012189028A43C2612068C1692A6950
:1033700012021143C161ABE770B5040005D02546C8
:103380002035687F002802D006E0012070BD0020B3
:103390002877204600F014F802206877211D206865
:1033A00000F0DAFE01204034A071A877E8772070A1
:1033B0006070A070E070207160716877002070BD4F
:1033C0007047000010B50821014800F0D5F810BD85
:1033D000C001002070470000F8B5044600200D46EB
:1033E000009021462046203140309446002D0AD0DE
:1033F000042D0DD0082D10D04278022A12D0427828
:10340000012A11D075E08A7F022A0BD08A7FF7E764
:10341000CA7F022A06D0CA7FF2E70278022A01D0C8
:103420000278EDE70220F8BD6246002A01D1002BA8
:103430005FD10226484F494A002D09D0042D18D0EB
:10344000082D27D046700C2D44D00120009080E03C
:103450008E77606A8762606AC262616A4048086308
:10346000226861463432606AFEF74CFB002840D186
:1034700021E0CE77A06A8762A06AC262A16A38485A
:103480000863226861463832A06AFEF73BFB0028D9
:103490002FD115E00670E06A8762E06AC262E16AD5
:1034A0002F480863226861463C32E06AFEF72AFB37
:1034B00000281ED109E02068C168012252021EE0E6
:1034C0002068C1680122920219E02068C1680122C7
:1034D000D20214E0206B8762206BC262216B20480D
:1034E0000863226861464032206BFEF70BFB002820
:1034F00001D00120F8BD2068C168012212031143E8
:10350000C16001222946206800F06AFE154A206841
:103510001549904207D0884205D0144B984202D0FA
:10352000134B984204D1436C0125ED032B434364B4
:1035300020680123904204D00E4A904201D0884274
:1035400004D181684907490F062902D0016819434F
:1035500001600098F8BD0000FB41000861420008CE
:1035600099420008002C0140004001400044014005
:10357000004801400004004070B504460D46006854
:10358000002200F02DFE1D491B4B20688A10984236
:1035900008D01B4B984205D01A4B984202D01A4BC8
:1035A00098420AD1036A0B4207D1036A134204D13D
:1035B000436C0126F603B34343642068036A0B425D
:1035C00006D1016A114203D101684908490001602E
:1035D000204620300121002D07D0042D07D0403493
:1035E000082D06D06170002070BD8177FBE7C177A0
:1035F000F9E72170F7E70000002C014011110000ED
:10360000004001400044014000480140FEE7000046
:1036100010B50648006880694005400F034802D095
:10362000FFF778F810BDFFF7A4F810BD7401002073
:1036300010B5406A0021826B002A00D05163C26B32
:10364000002A00D0516300F073FC10BDF0B50446B1
:103650000022CE0740342823B025002E05D06678FE
:1036600042221F46B74300D0F2228E0705D54426DA
:1036700064783243A34300D02A43CB0B01D0B82354
:103680001A43102908D0202907D0402905D0006806
:10369000016891430160F0BD90210A43F7E7000003
:1036A00010B5144C436B0022A34202D0124CA3422B
:1036B0000ED1CB0B00D0B822102904D0202904D081
:1036C000402903D011E0902100E060210A430CE082
:1036D000CB0B00D0B822CB0701D0F2231A438B07C3
:1036E00001D5F4231A432029F0D000680168114362
:1036F000016010BDB93B0008C53C000801688A693B
:10370000D243920701D400228A6200688169C943CA
:10371000C90703D081690122114381617047F8B55F
:10372000054604464035687828218143206804D046
:103730000821C16100202870F8BD8169C903CF0F3D
:103740008169FE230E0C81681E408A05C168920DB6
:1037500019408C46E168022916D10621D3090E4092
:103760000B409E420FD1A16C491CA164A16C02299F
:10377000E2D10021A1640823C361297039462046A3
:10378000FEF79AFFF8BD66460121C9032046FFF700
:103790005DFF002028703246F0E70000F8B50546CE
:1037A0000446403568780026AE70334AE26266858A
:1037B000626C0A43626428281ED029281CD02A285B
:1037C0001AD02E492046FFF741FF6878602801D0C3
:1037D000202068706663206BA16B294F002903D0FD
:1037E000112812D0212810D0E16B002925D01228F1
:1037F00027D0222825D020E003212046FFF726FFEE
:10380000282068701F486063E5E720680168490464
:1038100004D501680122920391430160A06BFEF779
:10382000F5F8012809D0A06B47632E70A06BFEF756
:10383000C9F8002804D0A06B1AE0204600F078FBFD
:10384000F8BD20680168090404D501680122D2038B
:1038500091430160E06BFEF7D9F80128EDD0E06BF1
:1038600047632E70E06BFEF7ADF80028E8D0E06B00
:10387000416B8847F8BD00000000FFFF0380000097
:1038800031360008D93D000870B504461648E0629C
:103890000025256320222046403006464270857070
:1038A000C8436563400712D42068406A616A0870A3
:1038B000606A401C6062208D002808D0401E208570
:1038C000608D401E6085606C042108436064074978
:1038D0002046FFF7BBFE21681020C86135702046E6
:1038E000FEF7D6FF70BD00000000FFFF0380000060
:1038F000F8B50546009100682027C7612C46403482
:103900006078212803D06078222806D00BE00121BE
:103910002846FFF79BFE112004E002212846FFF70E
:1039200095FE1220286328684168254A11404160AD
:10393000002624486E63E8620098C043C10606D49E
:103940002A681021D161696C04221143696461788D
:10395000602905D1400703D42868406AC0B20090AE
:103960002846FFF7CBFE686C6178602901D00028FB
:1039700004D0696C2846FFF711FFF8BD6078212854
:103980000DD060782228F8D167702E63A078A670D9
:1039900040282670284610D0FEF79AFFF8BD6770C1
:1039A0002E63A078A67040282670284602D0FEF725
:1039B00090FFF8BDFEF78FFFF8BDFEF78BFFF8BD57
:1039C00000E800FE0000FFFF70B500250646403607
:1039D0000446B57071782020212970700BD0122018
:1039E0002063022120466563FFF730FE35702046D4
:1039F000FEF76EFF70BD1120206301212046656334
:103A0000FFF724FE35702046FEF763FF70BD00000F
:103A1000F8B50268044616680546403568780F46D2
:103A20002021D161212806D0292804D0222808D0BD
:103A30002A2806D00CE042492046FFF707FE212045
:103A400005E03F492046491CFFF700FE2220206385
:103A5000206841680122D203114341602068416817
:103A6000384A114041602046FFF748FEF0434104C8
:103A700007D4206801680122920391430160A06B82
:103A800008E000040BD4206802680121C9038A43BE
:103A90000260E06B002802D0006840686085F8434F
:103AA0004007042100280FDB20688F43406A626AC8
:103AB0001070606A401C6062208D002804D0401E97
:103AC0002085608D401E6085608D002802D0606C6E
:103AD000084360640026AE706663606C00280BD0FB
:103AE000616C2046FFF75AFE6878282803D13946D2
:103AF0002046FFF7C9FEF8BDE06A134FB8420BD06D
:103B0000204600F023F8E7622020687026632E70BC
:103B10002046FEF7BDFEF8BD6878222807D0202099
:103B2000687026632E702046FEF72AFFF8BD20201D
:103B3000687026632E702046FEF70AFFF8BD00006D
:103B40000180000000E800FE0000FFFF70B50546A0
:103B50000068016800262C464034A670C9434A0418
:103B600003D401680122920304E0090404D401682B
:103B70000122D203914301606178282029290ED0C7
:103B800061782A290AD16070222028630221284600
:103B9000FFF75CFD26702846FEF7DAFE70BD607008
:103BA0002120286301212846FFF750FD2670284672
:103BB000FEF7E6FE70BD0000F8B505460446403548
:103BC0002878012817D001202870CB43DE06D04387
:103BD000002E12DBC20610D421681020C861606C70
:103BE00004210843606420212046FFF759FD204648
:103BF000FFF784FD5FE00220F8BD304A304E1F061B
:103C000037D4470635D420680168402399430160C2
:103C1000608D00282068406828D08105608D890D5E
:103C2000FF2803D9FF2020859B0408E0608D2085B4
:103C3000E06A904201D0E36A01E001235B060020C4
:103C40000090208DC2B2204600F05EF9608D218D7B
:103C5000401A6085687822282068016802D03143C4
:103C6000016028E00122D2031143F9E7800117D552
:103C700006E05F0618D4470616D4608D002804D0ED
:103C800040212046FFF78AFD15E020684168890140
:103C900011D4E16A914203D14168314341600AE0A5
:103CA0002046FFF791FE06E09A0604D4800602D46F
:103CB0002046FFF71DFE00202870F8BD0000FFFF22
:103CC00000400000F7B5C76A82B0044600202646CF
:103CD000403601903078012823D0012030700398BD
:103CE000D543C04300908006002805DBA80603D416
:103CF00020460399FFF78CFE0098C0065FD4E806C3
:103D00005DD469041020002901DA290454D4E16B40
:103D100000290BD02A0409D409684968002903D076
:103D200004E0022005B0F0BD01210191A16B002942
:103D300005D06A0403D409684968002902D00199B2
:103D400000291BD07178282908D1012149068F420A
:103D500004D120460399FFF797FD39E071782929AE
:103D60002AD101210904CF4226D02168C86120460A
:103D7000FFF7C4FC2046FFF7E9FE29E02168C8618F
:103D8000606C0421084360647078002F02D08905BC
:103D90008F421DD1212806D0292804D0222804D002
:103DA0002A2802D003E0212000E022202063616C59
:103DB0002046FFF7F3FC0BE02168C86108E000989B
:103DC000000705D4280703D420460399FFF7A7FC72
:103DD00000203070A6E70000FEB5C56A044606461E
:103DE000403601913078012828D0012030700198A8
:103DF000D743C04300908006002805DBB80603D4F3
:103E000020460199FFF704FE00983D493D4AC0064F
:103E100030D4F8062ED4638D1020002B10D02168EA
:103E2000C861606C042108436064002D01D0954294
:103E300062D1616C2046FFF7B1FC5DE00220FEBD5F
:103E40007278282A08D101225206954204D12046D0
:103E50000199FFF719FD4FE07278292A07D18D42A9
:103E600005D02168C8612046FFF748FC41E0216881
:103E7000C86141E00098400717D4780715D4608DD9
:103E800000280CD02068406A626A1070606A401C8A
:103E90006062208D401E2085608D401E6085608D93
:103EA000002829D18D4224D126E00098000706D4AD
:103EB000380704D420460199FFF731FC1CE0009834
:103EC000800719D4B80717D4608D00280DD0606A18
:103ED000216800788862606A401C6062608D401EC4
:103EE0006085208D401E208506E0954201D0002D82
:103EF00002D12046FFF72AFE00203070FEBD0000F0
:103F00000000FFFF00000001F0B50668059C756821
:103F1000064F600D384385438805800D1104084322
:103F20001843204305437560F0BD0000FF63FF03A5
:103F300010B5014640314B780022602B04D002635B
:103F40000A70FEF733FC10BD20234B7002630A7029
:103F5000FEF7B1FB10BD0000012108B549070E4A6C
:103F6000002083009B181B68401C08C1C0B2302889
:103F7000F7D30A48816901221143816180691040A9
:103F800000900748016889088900016001680322E0
:103F90001143016008BD000000100008001002403D
:103FA0000000014070B586B014216846FDF717FA8D
:103FB00022484269012149040A43426142690A4098
:103FC0000592426949000A43426140693124084030
:103FD00005901B48240400256A4631C20920694621
:103FE000C006FEF741FA1748174E00900195694642
:103FF00002953046FEF738FA0F2000036A4631C2B8
:1040000069463046FEF730FA002211460520FEF7D9
:104010008DFD0520FEF77EFD002211460620FEF7ED
:1040200085FD0620FEF776FD002211460720FEF7EB
:104030007DFD0720FEF76EFD06B070BD001002404A
:10404000FF0F0000FE0300000004004810B58EB012
:1040500000240794089409940A940B941C21684640
:104060000C94FDF7BCF91F491F4812C0046084601E
:104070003B21046141600838FFF72AF8002801D08D
:1040800072B6FEE701200003079007A91648FFF764
:1040900073F8002801D072B6FEE71348FFF76CF9F9
:1040A000002801D072B6FEE70B940BA90E480C94C1
:1040B000FEF7E0FF002801D072B6FEE76020009016
:1040C000019402940822694604940748FFF7ECF82B
:1040D000002801D072B6FEE70348FFF7BDF80EB026
:1040E00010BD000000040040C0010020FEE7704742
:1040F000704710B5FEF7B0FC10BD30B591B030215F
:104100006846FDF76CF900240D94012003900E948D
:104110000225102009940490009505200F94C004F6
:104120000A900C9408950B946846FEF7C7FD00288A
:1041300001D072B6FEE707200C900E9401210D9578
:104140000F940CA8FEF7F6FC002801D072B6FEE72B
:1041500011B030BD70470000F0B502681A4B1B4C1F
:10416000984201D0A04203D17025AA434D682A434A
:10417000174D184E184F98420AD0A04208D0174C3D
:10418000A04205D0A84203D0B04201D0B84205D128
:104190001446032212029443CA6822438024A24395
:1041A0004C69224302608A68C2620A68826298424D
:1041B00005D0A84203D0B04201D0B84201D109696C
:1041C000016301214161F0BD002C01400004004069
:1041D00000400140004401400048014000200040F0
:1041E00010B5CB06DB0E0121046A99408C430462B2
:1041F000016A9A401143016210BD10B5446A012161
:10420000626A824206D121778069002822D13E204D
:1042100001551FE0A26A824207D1022222778069FB
:10422000002817D13F20015514E0E26A824207D1ED
:1042300004222277806900280CD14020015509E032
:10424000226B824206D1082222778069002801D1A0
:10425000412001552046FFF7B5F80020207710BD1A
:1042600010B5446A616A814201D101200DE0A16A62
:10427000814201D1022008E0E16A814201D104209B
:1042800003E0216B814201D1082020772046FFF70F
:10429000A1F80020207710BD10B5446A0121626AA0
:1042A000824203D121773E20015519E0A26A824261
:1042B00004D1022020773F20015511E0E26A8242BA
:1042C00004D1042020774020015509E0226B82426E
:1042D00004D1082020774120015501E03D200155FF
:1042E0002046FEF7B7FF0020207710BD30B5846868
:1042F000FF252D021B021343AC430B432343836072
:1043000030BD826870239A430A4307210A438260C2
:1043100070470000F0B5026A520852000262056A56
:10432000436882697024A24392080C689200144387
:10433000022295438A68164E2A43144DA84207D09C
:10434000B04205D0134FB84202D0134FB84206D145
:104350000827BA43CF681743042297433A46A84236
:1043600007D0B04205D00B4DA84202D00A4DA8425A
:1043700006D103252D02AB434D691D438B692B43A9
:1043800043608461496841630262F0BD002C0140D2
:1043900000400140004401400048014070B5026AFD
:1043A00010239A430262056A4268836973242402D7
:1043B000A3430C6824021C4320239D438B681B01EC
:1043C0002B43124DA84208D11D46CB688026B54329
:1043D0001B012B434025AB4308E00D4DA84205D0FF
:1043E0000C4DA84202D00C4DA84208D10325AD02C5
:1043F000AA434D69AD0015438A6992002A43426081
:10440000846149688163036270BD0000002C014033
:1044100000400140004401400048014070B5026A7C
:10442000FF2301339A430262056A4368C26970241C
:10443000A24392080C689200144301225202954351
:104440008A6812022A43124DA84208D11546CA684A
:10445000C614B54312022A430515AA4308E00D4DC0
:10446000A84205D00C4DA84202D00C4DA84208D15C
:1044700003252D03AB434D692D011D438B691B01A2
:104480002B434360C4614968C163026270BD000090
:10449000002C014000400140004401400048014020
:1044A00030B5026A01231B039A430262046A426820
:1044B000C36973252D02AB430D682D021D430123F3
:1044C0005B039C438B681B0323430C4CA04208D026
:1044D0000B4CA04205D00B4CA04202D00A4CA0428B
:1044E00005D10124A403A2434C69A40122434260E4
:1044F000C56149680164036230BD0000002C0140C1
:1045000000400140004401400048014030B5036ACA
:10451000046A6408640004628469F025AC431201F3
:1045200022430A24A3430B438261036230BD30B5AA
:10453000036A1024A34303628469036A0F252D03D1
:104540001203AC432243A024A3430901194382610F
:10455000016230BDF8B5040C8BB2264682B25E43D0
:104560000D0C1046370C5843360480190021794150
:1045700016466E43370C36048019794126466E4341
:104580008919F8BD30B47446641E2578641CAB42AA
:1045900000D21D46635D5B00E31830BC1847000085
:1045A0008307FF22DB0E9A408907090E99400028F5
:1045B00008DB830809489B001B18186890430843D0
:1045C000186070470007000F0838830804489B00F4
:1045D0001B18D86990430843D861704700E400E095
:1045E00000ED00E010B50520FEF784FA0620FEF786
:1045F00081FA0720FEF77EFA10BD00000548064A42
:104600000188914201D00020704740880028FBD0EB
:104610000120704700FC000855AA0000F0B587B0E3
:10462000002000900190029003900490059000F00B
:104630002BFB0024264604E00026022C27D0032C66
:1046400025D0404D6000295A0920C006FDF7DEFF45
:1046500004A9002708556500022C1DD0032C1BD08F
:104660003848415B0920C006FDF7D0FF6946485332
:104670000A4604A8495B035D994211D1761CB6B283
:104680000A2E0FD32F4B515D293B19550EE02D48B3
:104690006100415A2C48D9E72A48415B2A48E3E7A0
:1046A000015500267F1CBFB2962FD5D3641C082C61
:1046B000C2DB0024254604E00025022C29D0032C6F
:1046C00027D0204E60001036315A0920C006FDF771
:1046D0009DFF04A9002708556600022C1FD0032C5B
:1046E0001DD018481030815B0920C006FDF78EFFF1
:1046F0006946885304A8895B025D914214D16D1C00
:10470000ADB20A2D12D30F496846805D2139085594
:1047100010E00C4861001030415A0B48D7E70948B7
:104720001030815B0848E1E7015500257F1CBFB2CE
:10473000962FD2D3641C082CBEDB00F0C5FA07B05C
:10474000F0BD0000F40000200004004810B5052072
:10475000FEF7E0F90620FEF7DDF90720FEF7DAF9AB
:1047600010BD00000448054A0188914201D0002094
:10477000704740887047000000FC000855AA000000
:1047800070470000F0B50025984E85B00A460746F0
:10479000012927D938781F2827D8032190078907AE
:1047A000C8421DD1521ED017800F002480188510DA
:1047B00014E0A000C6190490B01CFCF712FE010220
:1047C00070783A78014304981018C217920F1018A5
:1047D0008208874892001018641C0160A542E8DC3A
:1047E00005B0F0BD012A09D0FAD93878511E034628
:1047F000403B072B7ED800207D4A4FE03C781F2CA1
:1048000005D8A1087A488900081804219DE02046AF
:1048100020381F2814D8C117890F0818744C800835
:10482000800020340019042100F0E8F8387820389E
:10483000C117890F08188008800000190560CFE7AC
:10484000204650380F283CD8684908220839684665
:10485000FCF766FD0822654902A8FCF761FD6020AF
:10486000001B81B263486844201800F0C7F838780C
:1048700058380300FFF786FE081517191B1D1F2166
:104880002305ADE73B185B78002B06D03B781B185F
:104890009B009B18FF3B013B1D60401C8842F1DBE5
:1048A0009EE735709CE775709AE7B57098E7F570EC
:1048B00096E7357194E7757192E7B57190E7F571F8
:1048C0008EE74A4E233E602C38D0612C40D0622CBB
:1048D00044D0204670381A286CD80321FCF79CFD80
:1048E0008100454804686058000CF51D2870387830
:1048F000032100E011E07038FCF78EFD8000205AA3
:104900000321000A687038787038FCF785FD800054
:10491000205CA8700321284617E00346583B072B6C
:1049200020D8002007E03A1853783A7894190246C4
:10493000583AA354401C8842F5DB51E7204600F06A
:104940004DF9F07029480121203800F057F847E769
:10495000264801211F3800F051F8AAE72348012119
:104960001E38F2E7014670391A292FD80321501E4C
:10497000FCF752FD0546002992D1002415E06000A5
:10498000261839783046703808180321FCF744FDA2
:10499000C2B2F0194178837809041B02C078194328
:1049A0000143104600F0E8F8641CA542E7DC00F083
:1049B0007BFA15E7FE2C05D0FF2CBED10B48012158
:1049C0002338C2E7094801212238BEE7FF28B4D1C5
:1049D000022AB2D178788028AFD2044923390870EE
:1049E00000F032F800F0D0F9FAE60000E300002011
:1049F00034010020B0FFFFFF2001002010B5084A5D
:104A0000322902D93221518002E05180002906D09A
:104A1000002804D00A4601460248FCF781FC10BD7C
:104A2000140100207E02002010B50121054800F08D
:104A3000B5F8002804D103494120087000F004F8BB
:104A400010BD0000C000002010B50121014800F099
:104A5000CDF910BDC0000020C00700D00120704774
:104A600008B5FFF779FAFDF7FFFFFFF746FBFFF701
:104A700099FA3B4841690122114341614069002193
:104A8000104000900A20FEF751F80A20FEF742F885
:104A9000FFF7DCFAFFF7A6FDFFF7C0FDFFF756FEB4
:104AA000FFF7C2FF00F070F92E48FDF76BFE0920FA
:104AB00000F0E0F82C4F3E46103E35461B3DA879ED
:104AC000002807D00020A871FFF78CFDFFF7A6FD96
:104AD000FFF73CFE2548007800281FD0FDF79CFD1D
:104AE000234C2168884219D9FDF796FDFF30FA3032
:104AF000206020480168491C0160006802280DD32D
:104B00001848FDF73FFE1748006841680122D203AC
:104B100011434160FF20F530FDF72AF80024E0B290
:104B200000F05CF83055395D814207D0002904D18E
:104B30000D4908390A5D521C0A553855641C082C69
:104B4000EDDB00206871315C002900D001216A7919
:104B5000814011436971401C0828F4DBAFE7000075
:104B60000010024074010020EB000020150100201D
:104B70001C01002018010020064B0A0C1A540A0AD6
:104B800009331A541A4609321154034A8000126834
:104B900011507047B00200202001002030B50B46B4
:104BA0000446FFF72BFD002813D0FFF7DBFD02467C
:104BB0000020094903E045182D792554401C9A42EC
:104BC00001D2154600E01D468542F4DC9A4201D22E
:104BD000104630BD184630BD00FC0008F8B5002472
:104BE000264604281AD008DC00280FD001280FD050
:104BF00002280FD003281CD10EE0052810D006286B
:104C000010D0072811D0602813D111E0042410E03F
:104C100008240EE010240CE020240AE0402408E0E0
:104C2000802406E0FF24013403E00124640200E054
:104C3000022421460D48FDF7E9FC054600272146E0
:104C40000A48FDF7E3FCA84206D1761CFF21B6B264
:104C5000F5318E4208D201E0054600267F1C04484B
:104C6000BFB28742EBD30120F8BD0000000400482A
:104C7000DC05000010B50421FCF7AAFA0149086020
:104C800010BD00002001002010B586B01421684638
:104C9000FCF7A5FB0A48002400900920019469460E
:104CA0000294C006FDF7E0FB0F2000030090019482
:104CB000694602940348FDF7D7FB06B010BD00001B
:104CC000FF0F00000004004830B585B0142168468D
:104CD000FCF785FB0F2031240003240400256A46DD
:104CE00031C269460648FDF7BFFB06486A4631C235
:104CF00009206946C006FDF7B7FB05B030BD0000CE
:104D000000040048FF0F000010B586B0142168466B
:104D1000FCF765FB0A4800240090092001946946CD
:104D20000294C006FDF7A0FB05200003009001944B
:104D3000694602940348FDF797FB06B010BD0000DA
:104D4000550500000004004830B585B014216846C0
:104D5000FCF745FB0A482124240400256A4631C299
:104D600009206946C006FDF77FFB052000036A465F
:104D700031C269460348FDF777FB05B030BD00003E
:104D8000550500000004004810B51548134901609E
:104D90001449416014490978490081600121C160CA
:104DA0000021016141618161C1610162FDF716FD70
:104DB000002801D072B6FEE700210948FDF732FC59
:104DC000002801D072B6FEE700210548FDF74FFC30
:104DD000002801D072B6FEE710BD00000058004068
:104DE000740100205D3E3020C0000020F0B5064672
:104DF0000C46081D0121890285B0884202D9002095
:104E000005B0F0BDFCF75EFF00200121244D0190AC
:104E1000039100900295694601A8FCF7BBFE214A68
:104E2000002329460120FCF70FFF22460023A91C7E
:104E30000120FCF709FF002567080DE068008219D2
:104E4000517813780A0216491A43091D41180023A4
:104E50000120FCF7F9FE6D1CAF42EFDC2046FFF7A6
:104E6000FBFD002809D030192038C27F0C480023F0
:104E7000C01C21180120FCF7E7FE0020084908E0CB
:104E800042181279335C9A4202D0FCF7D3FEB6E79F
:104E9000401CA042F4DBFCF7CDFE0120B0E700008F
:104EA00000FC000855AA0000F8B500201C4A0021AB
:104EB000125C034696461A4A093A125C9446184A0E
:104EC0000932145C1822534380227546CA401542A9
:104ED00001D0282600E01326114D5F187F001335FE
:104EE0007F19FE806646164201D0282600E0132670
:104EF000FE82144201D0282200E01322491CC9B2CC
:104F0000FA840829E0D3401CC0B20928CED3044A51
:104F1000DC23133208210348FEF75EFAF8BD0000D7
:104F2000B9020020C00100200000000000000000C5
:104F30000102030406070809584F0008C0000020BA
:104F400074000000F8100008CC4F00083401002065
:104F5000D409000014110008000100000000000046
:104F60000000000000000000000000000000000041
:104F70000000000101010101010101000000000029
:104F80000000000101010101010101000004000114
:104F90000040001040001000040001000008000262
:104FA00000800020800020000800020000000000B7
:104FB00000000000000000000000000001000000F0
:104FC000040000000000000000127A00FFFFFFFF55
:104FD000FFFFFFFFFFFFFFFFFFFFFFFFFFFFFFFFE1
:104FE000FFFFFFFFFFFFFFFFFFFFFFFFFFFFFFFFD1
:104FF000FFFFFFFFFFFFFFFFFFFFFFFFFFFFFFFFC1
:10500000FFFFFFFFFFFFFFFFFFFFFFFFFFFFFFFFB0
:10FBF000FFFFFFFFFFFFFFFFFFFFFFFF58AE637533
:10FC0000FFFFFFFFFFFFFFFFFFFFFFFFFFFFFFFF04
:10FC1000FFFFFFFFFFFFFFFFFFFFFFFFFFFFFFFFF4
:10FC2000FFFFFFFFFFFFFFFFFFFFFFFFFFFFFFFFE4
:10FC3000FFFFFFFFFFFFFFFFFFFFFFFFFFFFFFFFD4
:00000001FF
